{
  "contractName": "CryptoHeroes",
  "abi": [
    {
      "constant": true,
      "inputs": [
        {
          "name": "",
          "type": "uint256"
        }
      ],
      "name": "characterToOwner",
      "outputs": [
        {
          "name": "",
          "type": "address"
        }
      ],
      "payable": false,
      "stateMutability": "view",
      "type": "function"
    },
    {
      "constant": true,
      "inputs": [
        {
          "name": "",
          "type": "uint256"
        }
      ],
      "name": "characters",
      "outputs": [
        {
          "name": "name",
          "type": "string"
        },
        {
          "name": "dna",
          "type": "uint256"
        },
        {
          "name": "level",
          "type": "uint32"
        },
        {
          "name": "readyTime",
          "type": "uint256"
        },
        {
          "name": "strength",
          "type": "uint32"
        },
        {
          "name": "dexterity",
          "type": "uint32"
        },
        {
          "name": "agility",
          "type": "uint32"
        },
        {
          "name": "constitution",
          "type": "uint32"
        },
        {
          "name": "charisma",
          "type": "uint32"
        },
        {
          "name": "intelligence",
          "type": "uint32"
        },
        {
          "name": "trainingPoints",
          "type": "uint32"
        },
        {
          "name": "winCount",
          "type": "uint16"
        },
        {
          "name": "lossCount",
          "type": "uint16"
        }
      ],
      "payable": false,
      "stateMutability": "view",
      "type": "function"
    },
    {
      "constant": true,
      "inputs": [],
      "name": "charactersCount",
      "outputs": [
        {
          "name": "",
          "type": "uint256"
        }
      ],
      "payable": false,
      "stateMutability": "view",
      "type": "function"
    },
    {
      "inputs": [],
      "payable": false,
      "stateMutability": "nonpayable",
      "type": "constructor"
    },
    {
      "constant": false,
      "inputs": [
        {
          "name": "_name",
          "type": "string"
        }
      ],
      "name": "createFirstCharacter",
      "outputs": [],
      "payable": false,
      "stateMutability": "nonpayable",
      "type": "function"
    },
    {
      "constant": true,
      "inputs": [
        {
          "name": "_address",
          "type": "address"
        }
      ],
      "name": "exists",
      "outputs": [
        {
          "name": "",
          "type": "bool"
        }
      ],
      "payable": false,
      "stateMutability": "view",
      "type": "function"
    },
    {
      "constant": true,
      "inputs": [
        {
          "name": "_owner",
          "type": "address"
        }
      ],
      "name": "getCharacterIdByOwner",
      "outputs": [
        {
          "name": "result",
          "type": "uint256"
        }
      ],
      "payable": false,
      "stateMutability": "view",
      "type": "function"
    },
    {
      "constant": true,
      "inputs": [
        {
          "name": "_dna",
          "type": "uint256"
        }
      ],
      "name": "getCharacterByDna",
      "outputs": [
        {
          "name": "id",
          "type": "uint256"
        }
      ],
      "payable": false,
      "stateMutability": "view",
      "type": "function"
    },
    {
      "constant": false,
      "inputs": [
        {
          "name": "_characterId",
          "type": "uint256"
        },
        {
          "name": "_trainingPoints",
          "type": "uint32"
        },
        {
          "name": "_strength",
          "type": "uint32"
        },
        {
          "name": "_dexterity",
          "type": "uint32"
        },
        {
          "name": "_agility",
          "type": "uint32"
        },
        {
          "name": "_constitution",
          "type": "uint32"
        },
        {
          "name": "_charisma",
          "type": "uint32"
        },
        {
          "name": "_intelligence",
          "type": "uint32"
        }
      ],
      "name": "upgradeCharacterSkills",
      "outputs": [],
      "payable": false,
      "stateMutability": "nonpayable",
      "type": "function"
    },
    {
      "constant": false,
      "inputs": [
        {
          "name": "_characterId",
          "type": "uint256"
        },
        {
          "name": "_targetId",
          "type": "uint256"
        }
      ],
      "name": "attack",
      "outputs": [],
      "payable": true,
      "stateMutability": "payable",
      "type": "function"
    },
    {
      "constant": false,
      "inputs": [],
      "name": "withdraw",
      "outputs": [],
      "payable": false,
      "stateMutability": "nonpayable",
      "type": "function"
    }
  ],
  "bytecode": "0x60806040526010600055600054600a0a600155600a60025560006003556000600755604660085534801561003257600080fd5b5033600960006101000a81548173ffffffffffffffffffffffffffffffffffffffff021916908373ffffffffffffffffffffffffffffffffffffffff1602179055506113ab806100836000396000f3fe6080604052600436106100915760003560e01c80636164264d116100595780636164264d146103b15780636b186968146103dc578063bdb9f5381461042b578063e1fa7638146104f3578063f6a3d24e1461052b57610091565b806319e7ce8b146100965780631aeea2bf146101115780632b2bbcd0146101bd5780633ccfd60b146102225780634810bc5914610239575b600080fd5b3480156100a257600080fd5b506100cf600480360360208110156100b957600080fd5b8101908080359060200190929190505050610594565b604051808273ffffffffffffffffffffffffffffffffffffffff1673ffffffffffffffffffffffffffffffffffffffff16815260200191505060405180910390f35b34801561011d57600080fd5b506101bb600480360361010081101561013557600080fd5b8101908080359060200190929190803563ffffffff169060200190929190803563ffffffff169060200190929190803563ffffffff169060200190929190803563ffffffff169060200190929190803563ffffffff169060200190929190803563ffffffff169060200190929190803563ffffffff1690602001909291905050506105c7565b005b3480156101c957600080fd5b5061020c600480360360208110156101e057600080fd5b81019080803573ffffffffffffffffffffffffffffffffffffffff16906020019092919050505061077c565b6040518082815260200191505060405180910390f35b34801561022e57600080fd5b50610237610816565b005b34801561024557600080fd5b506102726004803603602081101561025c57600080fd5b81019080803590602001909291905050506108f2565b60405180806020018e81526020018d63ffffffff1663ffffffff1681526020018c81526020018b63ffffffff1663ffffffff1681526020018a63ffffffff1663ffffffff1681526020018963ffffffff1663ffffffff1681526020018863ffffffff1663ffffffff1681526020018763ffffffff1663ffffffff1681526020018663ffffffff1663ffffffff1681526020018563ffffffff1663ffffffff1681526020018461ffff1661ffff1681526020018361ffff1661ffff16815260200182810382528f818151815260200191508051906020019080838360005b8381101561036a57808201518184015260208101905061034f565b50505050905090810190601f1680156103975780820380516001836020036101000a031916815260200191505b509e50505050505050505050505050505060405180910390f35b3480156103bd57600080fd5b506103c6610a99565b6040518082815260200191505060405180910390f35b3480156103e857600080fd5b50610415600480360360208110156103ff57600080fd5b8101908080359060200190929190505050610a9f565b6040518082815260200191505060405180910390f35b34801561043757600080fd5b506104f16004803603602081101561044e57600080fd5b810190808035906020019064010000000081111561046b57600080fd5b82018360208201111561047d57600080fd5b8035906020019184600183028401116401000000008311171561049f57600080fd5b91908080601f016020809104026020016040519081016040528093929190818152602001838380828437600081840152601f19601f820116905080830192505050505050509192919290505050610af8565b005b6105296004803603604081101561050957600080fd5b810190808035906020019092919080359060200190929190505050610b22565b005b34801561053757600080fd5b5061057a6004803603602081101561054e57600080fd5b81019080803573ffffffffffffffffffffffffffffffffffffffff169060200190929190505050610db2565b604051808215151515815260200191505060405180910390f35b60056020528060005260406000206000915054906101000a900473ffffffffffffffffffffffffffffffffffffffff1681565b86600489815481106105d557fe5b906000526020600020906005020160040160186101000a81548163ffffffff021916908363ffffffff160217905550856004898154811061061257fe5b906000526020600020906005020160040160006101000a81548163ffffffff021916908363ffffffff160217905550846004898154811061064f57fe5b906000526020600020906005020160040160046101000a81548163ffffffff021916908363ffffffff160217905550836004898154811061068c57fe5b906000526020600020906005020160040160086101000a81548163ffffffff021916908363ffffffff16021790555082600489815481106106c957fe5b9060005260206000209060050201600401600c6101000a81548163ffffffff021916908363ffffffff160217905550816004898154811061070657fe5b906000526020600020906005020160040160106101000a81548163ffffffff021916908363ffffffff160217905550806004898154811061074357fe5b906000526020600020906005020160040160146101000a81548163ffffffff021916908363ffffffff1602179055505050505050505050565b600080600090505b60048054905081101561080d578273ffffffffffffffffffffffffffffffffffffffff166005600083815260200190815260200160002060009054906101000a900473ffffffffffffffffffffffffffffffffffffffff1673ffffffffffffffffffffffffffffffffffffffff1614156108005780915061080d565b8080600101915050610784565b50809050919050565b600960009054906101000a900473ffffffffffffffffffffffffffffffffffffffff1673ffffffffffffffffffffffffffffffffffffffff163373ffffffffffffffffffffffffffffffffffffffff161461087057600080fd5b600960009054906101000a900473ffffffffffffffffffffffffffffffffffffffff1673ffffffffffffffffffffffffffffffffffffffff166108fc3073ffffffffffffffffffffffffffffffffffffffff16319081150290604051600060405180830381858888f193505050501580156108ef573d6000803e3d6000fd5b50565b600481815481106108ff57fe5b9060005260206000209060050201600091509050806000018054600181600116156101000203166002900480601f0160208091040260200160405190810160405280929190818152602001828054600181600116156101000203166002900480156109ab5780601f10610980576101008083540402835291602001916109ab565b820191906000526020600020905b81548152906001019060200180831161098e57829003601f168201915b5050505050908060010154908060020160009054906101000a900463ffffffff16908060030154908060040160009054906101000a900463ffffffff16908060040160049054906101000a900463ffffffff16908060040160089054906101000a900463ffffffff169080600401600c9054906101000a900463ffffffff16908060040160109054906101000a900463ffffffff16908060040160149054906101000a900463ffffffff16908060040160189054906101000a900463ffffffff169080600401601c9054906101000a900461ffff169080600401601e9054906101000a900461ffff1690508d565b60035481565b600080600090505b600480549050811015610aef578260048281548110610ac257fe5b9060005260206000209060050201600101541415610ae257809150610aef565b8080600101915050610aa7565b50809050919050565b6000610b0382610e50565b905060648181610b0f57fe5b0681039050610b1e8282610ede565b5050565b816005600082815260200190815260200160002060009054906101000a900473ffffffffffffffffffffffffffffffffffffffff1673ffffffffffffffffffffffffffffffffffffffff163373ffffffffffffffffffffffffffffffffffffffff1614610b8e57600080fd5b66038d7ea4c680003414610ba157600080fd5b600060048481548110610bb057fe5b90600052602060002090600502019050610bc981611224565b610bd257600080fd5b600060048481548110610be157fe5b906000526020600020906005020190506000610bfd6064611235565b90506008548111610cf55782600401601881819054906101000a900463ffffffff168092919060010191906101000a81548163ffffffff021916908363ffffffff1602179055505082600201600081819054906101000a900463ffffffff168092919060010191906101000a81548163ffffffff021916908363ffffffff1602179055505082600401601c81819054906101000a900461ffff168092919060010191906101000a81548161ffff021916908361ffff1602179055505081600401601e81819054906101000a900461ffff168092919060010191906101000a81548161ffff021916908361ffff16021790555050610da1565b82600401601e81819054906101000a900461ffff168092919060010191906101000a81548161ffff021916908361ffff1602179055505081600401601c81819054906101000a900461ffff168092919060010191906101000a81548161ffff021916908361ffff1602179055505081600401601881819054906101000a900463ffffffff168092919060010191906101000a81548163ffffffff021916908363ffffffff160217905550505b610daa836112c4565b505050505050565b6000806000905060008090505b600354811015610e46578373ffffffffffffffffffffffffffffffffffffffff166005600083815260200190815260200160002060009054906101000a900473ffffffffffffffffffffffffffffffffffffffff1673ffffffffffffffffffffffffffffffffffffffff161415610e395760019150610e46565b8080600101915050610dbf565b5080915050919050565b600080826040516020018082805190602001908083835b60208310610e8a5780518252602082019150602081019050602083039250610e67565b6001836020036101000a0380198251168184511680821785525050505050509050019150506040516020818303038152906040528051906020012060001c90506001548181610ed557fe5b06915050919050565b600060016004604051806101a00160405280868152602001858152602001600163ffffffff168152602001600254420163ffffffff168152602001600563ffffffff168152602001600563ffffffff168152602001600563ffffffff168152602001600563ffffffff168152602001600563ffffffff168152602001600563ffffffff168152602001600563ffffffff168152602001600061ffff168152602001600061ffff16815250908060018154018082558091505090600182039060005260206000209060050201600090919290919091506000820151816000019080519060200190610fcf9291906112da565b506020820151816001015560408201518160020160006101000a81548163ffffffff021916908363ffffffff1602179055506060820151816003015560808201518160040160006101000a81548163ffffffff021916908363ffffffff16021790555060a08201518160040160046101000a81548163ffffffff021916908363ffffffff16021790555060c08201518160040160086101000a81548163ffffffff021916908363ffffffff16021790555060e082015181600401600c6101000a81548163ffffffff021916908363ffffffff1602179055506101008201518160040160106101000a81548163ffffffff021916908363ffffffff1602179055506101208201518160040160146101000a81548163ffffffff021916908363ffffffff1602179055506101408201518160040160186101000a81548163ffffffff021916908363ffffffff16021790555061016082015181600401601c6101000a81548161ffff021916908361ffff16021790555061018082015181600401601e6101000a81548161ffff021916908361ffff1602179055505050039050336005600083815260200190815260200160002060006101000a81548173ffffffffffffffffffffffffffffffffffffffff021916908373ffffffffffffffffffffffffffffffffffffffff160217905550600660003373ffffffffffffffffffffffffffffffffffffffff1673ffffffffffffffffffffffffffffffffffffffff16815260200190815260200160002060008154809291906001019190505550600360008154809291906001019190505550505050565b600042826003015411159050919050565b6000600760008154809291906001019190505550814233600754604051602001808481526020018373ffffffffffffffffffffffffffffffffffffffff1673ffffffffffffffffffffffffffffffffffffffff1660601b815260140182815260200193505050506040516020818303038152906040528051906020012060001c816112bc57fe5b069050919050565b600254420163ffffffff16816003018190555050565b828054600181600116156101000203166002900490600052602060002090601f016020900481019282601f1061131b57805160ff1916838001178555611349565b82800160010185558215611349579182015b8281111561134857825182559160200191906001019061132d565b5b509050611356919061135a565b5090565b61137c91905b80821115611378576000816000905550600101611360565b5090565b9056fea165627a7a723058203eaed32d1f7eaa1c284335bf1a2456246e8fbfb520355615dcad52037fe3b40e0029",
  "source": "pragma solidity ^0.5.0;\r\n\r\ncontract CryptoHeroes {\r\n\r\n//////// CORE ////////////\r\n\r\nuint idDigits = 16;\r\nuint idModulus = 10 ** idDigits;\r\nuint cooldownTime = 10 seconds;\r\nuint public charactersCount = 0;\r\n\r\nstruct Character{\r\n  //base\r\n  string name;\r\n  uint dna;\r\n  uint32 level;\r\n  uint readyTime;\r\n  //skills\r\n  uint32 strength;\r\n  uint32 dexterity;\r\n  uint32 agility;\r\n  uint32 constitution;\r\n  uint32 charisma;\r\n  uint32 intelligence;\r\n  //training points\r\n  uint32 trainingPoints;\r\n  //stats\r\n  uint16 winCount;\r\n  uint16 lossCount;\r\n}\r\n\r\n\r\nCharacter[] public characters;\r\n\r\nmapping (uint => address) public characterToOwner;\r\nmapping (address => uint) ownerCharacterCount;\r\n\r\nfunction _createCharacter(string memory _name,  uint  _dna) private {\r\n    uint id = characters.push(Character(_name, _dna, 1, uint32(now + cooldownTime), 5, 5, 5, 5, 5, 5, 5, 0, 0)) - 1;\r\n    characterToOwner[id] = msg.sender;\r\n    ownerCharacterCount[msg.sender]++;\r\n    charactersCount++;\r\n}\r\n\r\nfunction _generateRandomId(string memory _str) private view returns (uint){\r\n    uint rand = uint(keccak256(abi.encodePacked(_str)));\r\n    return rand % idModulus;\r\n}\r\n\r\nfunction createFirstCharacter(string memory _name) public {\r\n    uint randId = _generateRandomId(_name);\r\n    randId = randId - randId % 100;\r\n    _createCharacter(_name, randId);\r\n}\r\n\r\nfunction exists(address _address) public view returns (bool) {\r\n    bool res = false;\r\n    for (uint i = 0; i < charactersCount; i++) {\r\n        if( characterToOwner[i] == _address ) {\r\n            res = true;\r\n            break;\r\n        }\r\n    }\r\n    return res;\r\n}\r\n\r\n\r\n////// TRIGGERS ///////\r\n\r\nfunction _triggerCooldown(Character storage _character) internal {\r\n    _character.readyTime = uint32(now + cooldownTime);\r\n}\r\n\r\nfunction _isReady(Character storage _character) internal view returns (bool) {\r\n    return (_character.readyTime <= now);\r\n}\r\n\r\n/////// HELPERS /////////\r\n\r\nmodifier onlyOwnerOf(uint _characterId) {\r\n    require(msg.sender == characterToOwner[_characterId]);\r\n    _;\r\n}\r\n\r\n\r\nfunction getCharacterIdByOwner(address _owner) external view returns (uint result){\r\n    for(uint i = 0; i < characters.length; i++){\r\n        if(characterToOwner[i] == _owner){\r\n            result = i;\r\n            break;\r\n        }\r\n    }\r\n    return result;\r\n}\r\n\r\nfunction getCharacterByDna(uint _dna) external view returns (uint id){\r\n    for(uint i = 0; i < characters.length; i++){\r\n        if(characters[i].dna == _dna){\r\n            id = i;\r\n            break;\r\n        }\r\n    }\r\n    return id;\r\n}\r\n\r\nfunction upgradeCharacterSkills(uint _characterId,\r\n                                uint32 _trainingPoints,\r\n                                uint32 _strength,\r\n                                uint32 _dexterity,\r\n                                uint32 _agility,\r\n                                uint32 _constitution,\r\n                                uint32 _charisma,\r\n                                uint32 _intelligence) external {\r\n    characters[_characterId].trainingPoints = _trainingPoints;\r\n    characters[_characterId].strength = _strength;\r\n    characters[_characterId].dexterity = _dexterity;\r\n    characters[_characterId].agility = _agility;\r\n    characters[_characterId].constitution = _constitution;\r\n    characters[_characterId].charisma = _charisma;\r\n    characters[_characterId].intelligence = _intelligence;\r\n}\r\n\r\n////// ATTACK ////////\r\nuint rand = 0;\r\nuint attackVictoryChance = 70;\r\n\r\nfunction randMod(uint _modulus) internal returns(uint) {\r\n    rand++;\r\n    return uint(keccak256(abi.encodePacked(now, msg.sender, rand))) % _modulus;\r\n}\r\n\r\nfunction attack(uint _characterId, uint _targetId) external payable onlyOwnerOf(_characterId) {\r\n    require(msg.value == 0.001 ether);\r\n    Character storage myCharacter = characters[_characterId];\r\n    require(_isReady(myCharacter));\r\n    Character storage enemyCharacter = characters[_targetId];\r\n    uint random = randMod(100);\r\n    if (random <= attackVictoryChance) {\r\n        myCharacter.trainingPoints++;\r\n        myCharacter.level++;\r\n        myCharacter.winCount++;\r\n        enemyCharacter.lossCount++;\r\n    } else {\r\n        myCharacter.lossCount++;\r\n        enemyCharacter.winCount++;\r\n        enemyCharacter.trainingPoints++;\r\n    }\r\n\r\n    _triggerCooldown(myCharacter);\r\n}\r\n\r\n////////// OWNER OF CONTRACT ////////////\r\nconstructor() public {\r\n  _owner = msg.sender;\r\n}\r\n\r\naddress private _owner;\r\nfunction withdraw() external {\r\n    require(msg.sender == _owner);\r\n    address(uint160(_owner)).transfer(address(this).balance);\r\n}\r\n}\r\n",
  "sourcePath": "C:/Users/MS Studio/Documents/Unipu/Blockchain/BlockChain - Dapp/VuejsTruffleCryptoHeroes/contracts/CryptoHeroes.sol",
  "compiler": {
    "name": "solc",
    "version": "0.5.8+commit.23d335f2.Emscripten.clang"
  },
  "schemaVersion": "3.0.16",
  "updatedAt": "2019-09-19T23:52:44.022Z",
  "devdoc": {
    "methods": {}
  },
  "userdoc": {
    "methods": {
      "constructor": "/////// OWNER OF CONTRACT ////////////"
    }
  }
}